:020000040800F2
:10000000005000207925000801250008032500087C
:100010000525000807250008092500080000000044
:100020000000000000000000000000000B25000898
:100030000D250008000000000F250008112500080C
:10004000C1250008C1250008C1250008C1250008F8
:10005000C1250008C1250008C1250008C1250008E8
:10006000C1250008C1250008C1250008C1250008D8
:10007000C1250008C1250008C1250008C1250008C8
:10008000C1250008C1250008C1250008C1250008B8
:10009000C1250008C1250008C1250008C1250008A8
:1000A000C1250008C1250008C1250008C125000898
:1000B0001525000821250008C1250008C1250008D4
:1000C000C1250008C1250008C1250008C125000878
:1000D000C1250008C1250008C1250008C125000868
:1000E000C1250008C1250008C12500080000000046
:1000F0000000000000000000000000000000000000
:0C01000000000000000000005FF808F1A3
:1001100010B5054C237833B9044B13B10448AFF341
:1001200000800123237010BD140000200000000097
:100130001C26000808B5034B1BB103490348AFF365
:10014000008008BD00000000180000201C260008E8
:1001500081F0004102E000BF83F0004330B54FEA78
:1001600041044FEA430594EA050F08BF90EA020FE5
:100170001FBF54EA000C55EA020C7FEA645C7FEA78
:10018000655C00F0E2804FEA5454D4EB5555B8BF9B
:100190006D420CDD2C4480EA020281EA030382EA0C
:1001A000000083EA010180EA020281EA0303362D9E
:1001B00088BF30BD11F0004F4FEA01314FF4801C71
:1001C0004CEA113102D0404261EB410113F0004F83
:1001D0004FEA03334CEA133302D0524263EB43033A
:1001E00094EA050F00F0A780A4F10104D5F1200ED8
:1001F0000DDB02FA0EFC22FA05F2801841F1000133
:1002000003FA0EF2801843FA05F359410EE0A5F106
:1002100020050EF1200E012A03FA0EFC28BF4CF037
:10022000020C43FA05F3C01851EBE37101F00045ED
:1002300007D54FF0000EDCF1000C7EEB00006EEBFA
:100240000101B1F5801F1BD3B1F5001F0CD3490884
:100250005FEA30004FEA3C0C04F101044FEA4452DB
:1002600012F5800F80F09A80BCF1004F08BF5FEA62
:10027000500C50F1000041EB045141EA050130BD42
:100280005FEA4C0C404141EB010111F4801FA4F1E5
:100290000104E9D191F0000F04BF01460020B1FA3A
:1002A00081F308BF2033A3F10B03B3F120020CDA72
:1002B0000C3208DD02F1140CC2F10C0201FA0CF050
:1002C00021FA02F10CE002F11402D8BFC2F1200CB5
:1002D00001FA02F120FA0CFCDCBF41EA0C0190406B
:1002E000E41AA2BF01EB0451294330BD6FEA0404B4
:1002F0001F3C1CDA0C340EDC04F11404C4F120029F
:1003000020FA04F001FA02F340EA030021FA04F3B0
:1003100045EA030130BDC4F10C04C4F1200220FA07
:1003200002F001FA04F340EA0300294630BD21FA45
:1003300004F0294630BD94F0000F83F4801306BF0B
:1003400081F480110134013D4EE77FEA645C18BFFF
:100350007FEA655C29D094EA050F08BF90EA020F96
:1003600005D054EA000C04BF1946104630BD91EA8E
:10037000030F1EBF0021002030BD5FEA545C05D191
:100380004000494128BF41F0004130BD14F58004D0
:100390003CBF01F5801130BD01F0004545F0FE4144
:1003A00041F470014FF0000030BD7FEA645C1ABF79
:1003B000194610467FEA655C1CBF0B46024650EAB0
:1003C000013406BF52EA033591EA030F41F40021DC
:1003D00030BD00BF90F0000F04BF0021704730B562
:1003E0004FF4806404F132044FF000054FF0000137
:1003F00050E700BF90F0000F04BF0021704730B5F8
:100400004FF4806404F1320410F0004548BF4042CC
:100410004FF000013EE700BF42004FEAE2014FEA21
:1004200031014FEA02701FBF12F07F4393F07F4FFC
:1004300081F06051704792F0000F14BF93F07F4F2E
:10044000704730B54FF4607401F0004521F0004171
:1004500020E700BF50EA010208BF704730B54FF0F7
:1004600000050AE050EA010208BF704730B511F0FC
:10047000004502D5404261EB41014FF4806404F134
:1004800032045FEA915C3FF4DCAE4FF003025FEAB6
:10049000DC0C18BF03325FEADC0C18BF033202EB3E
:1004A000DC02C2F1200300FA03FC20FA02F001FA98
:1004B00003FE40EA0E0021FA02F11444C1E600BF37
:1004C00070B54FF0FF0C4CF4E06C1CEA11541DBFEA
:1004D0001CEA135594EA0C0F95EA0C0F00F0DEF8B5
:1004E0002C4481EA030621EA4C5123EA4C5350EA9A
:1004F000013518BF52EA033541F4801143F48013EB
:1005000038D0A0FB02CE4FF00005E1FB02E506F07B
:100510000042E0FB03E54FF00006E1FB03569CF0D0
:10052000000F18BF4EF0010EA4F1FF04B6F5007FD6
:1005300064F5407404D25FEA4E0E6D4146EB060648
:1005400042EAC62141EA55514FEAC52040EA5E50D1
:100550004FEACE2EB4F1FD0C88BFBCF5E06F1ED87B
:10056000BEF1004F08BF5FEA500E50F1000041EBB2
:10057000045170BD06F0004646EA010140EA02005F
:1005800081EA0301B4EB5C04C2BFD4EB0C0541EA81
:10059000045170BD41F480114FF0000E013C00F396
:1005A000AB8014F1360FDEBF002001F0004170BDBA
:1005B000C4F10004203C35DA0C341BDC04F11404D3
:1005C000C4F1200500FA05F320FA04F001FA05F25F
:1005D00040EA020001F0004221F0004110EBD3702C
:1005E00021FA04F642EB06015EEA430E08BF20EA58
:1005F000D37070BDC4F10C04C4F1200500FA04F3FB
:1006000020FA05F001FA04F240EA020001F000418C
:1006100010EBD37041F100015EEA430E08BF20EAFF
:10062000D37070BDC4F1200500FA05F24EEA020E47
:1006300020FA04F301FA05F243EA020321FA04F076
:1006400001F0004121FA04F220EA020000EBD3702D
:100650005EEA430E08BF20EAD37070BD94F0000F2D
:100660000FD101F00046400041EB010111F4801F61
:1006700008BF013CF7D041EA060195F0000F18BF12
:10068000704703F00046520043EB030313F4801F4E
:1006900008BF013DF7D043EA0603704794EA0C0F08
:1006A0000CEA135518BF95EA0C0F0CD050EA41061E
:1006B00018BF52EA4306D1D181EA030101F000419B
:1006C0004FF0000070BD50EA410606BF10461946C3
:1006D00052EA430619D094EA0C0F02D150EA0136CF
:1006E00013D195EA0C0F05D152EA03361CBF104610
:1006F00019460AD181EA030101F0004141F0FE41AF
:1007000041F470014FF0000070BD41F0FE4141F432
:10071000780170BD70B54FF0FF0C4CF4E06C1CEA32
:1007200011541DBF1CEA135594EA0C0F95EA0C0FE7
:1007300000F0A7F8A4EB050481EA030E52EA0335A2
:100740004FEA013100F088804FEA03334FF08055C3
:1007500045EA131343EA12634FEA022245EA1115F0
:1007600045EA10654FEA00260EF000419D4208BFA1
:10077000964244F1FD0404F5407402D25B084FEA4E
:100780003202B61A65EB03055B084FEA32024FF4FA
:1007900080104FF4002CB6EB020E75EB030E22BF57
:1007A000B61A754640EA0C005B084FEA3202B6EB17
:1007B000020E75EB030E22BFB61A754640EA5C00C6
:1007C0005B084FEA3202B6EB020E75EB030E22BF56
:1007D000B61A754640EA9C005B084FEA3202B6EB57
:1007E000020E75EB030E22BFB61A754640EADC0016
:1007F00055EA060E18D04FEA051545EA16754FEA78
:1008000006164FEAC30343EA52734FEAC2025FEA95
:100810001C1CC0D111F4801F0BD141EA00014FF024
:1008200000004FF0004CB6E711F4801F04BF0143F5
:100830000020B4F1FD0C88BFBCF5E06F3FF6AFAE11
:10084000B5EB030C04BFB6EB020C5FEA500C50F1A1
:10085000000041EB045170BD0EF0004E4EEA113124
:1008600014EB5C04C2BFD4EB0C0541EA045170BD2B
:1008700041F480114FF0000E013C90E645EA060E6F
:100880008DE60CEA135594EA0C0F08BF95EA0C0F9D
:100890003FF43BAF94EA0C0F0AD150EA01347FF4E5
:1008A00034AF95EA0C0F7FF425AF104619462CE7BC
:1008B00095EA0C0F06D152EA03353FF4FDAE10461F
:1008C000194622E750EA410618BF52EA43067FF470
:1008D000C5AE50EA41047FF40DAF52EA43057FF400
:1008E000EBAE12E74FEA410212F5001215D211D514
:1008F0006FF47873B3EB625212D94FEAC12343F01D
:10090000004343EA505311F0004F23FA02F018BF9E
:10091000404270474FF00000704750EA013005D167
:1009200011F0004008BF6FF0004070474FF000002A
:10093000704700BF4A0011D212F5001211D20DD536
:100940006FF47873B3EB62520ED44FEAC12343F0D5
:10095000004343EA505323FA02F070474FF000007F
:10096000704750EA013002D14FF0FF3070474FF02E
:100970000000704738B50E4B054618784FF47A736F
:10098000B3FBF0F30B4A1068B0FBF3F000F0A0F8F3
:10099000044658B90F2D09D8024629464FF0FF30BA
:1009A00000F054F8044B20461D6038BD012038BDCE
:1009B000000000201000002004000020074A08B5B5
:1009C0001368032043F01003136000F02DF800209B
:1009D000FFF7D0FF01F0CAFC002008BD0020024054
:1009E000034A044B11681B780B441360704700BF27
:1009F0003000002000000020014B1868704700BF45
:100A00003000002038B50446FFF7F6FF0546631CAA
:100A10001EBF044B1B78E418FFF7EEFF401B844217
:100A2000FAD838BD00000020074A0002D36800F45D
:100A3000E06023F4E0631B041B0C43F0BF6343F44A
:100A400000330343D360704700ED00E0174B30B52F
:100A5000DC68C4F30224C4F10703251D042B28BF5E
:100A60000423062D4FF0010598BF002405FA03F377
:100A700003F1FF3388BF033C1940A14005FA04F499
:100A8000013C2240002842EA01024FEA0212A9BFBB
:100A900000F16040064BD2B200F56140BBBF00F0F0
:100AA0000F00D2B280F800231A5430BD00ED00E0F0
:100AB00014ED00E0002808DB0123420900F01F00CC
:100AC00003FA00F0014B43F82200704700E100E018
:100AD0000138B0F1807F0AD2F021064B064A5860F7
:100AE00082F823100020072298601A6070470120C6
:100AF000704700BF10E000E000ED00E02DE9F74F87
:100B000000242646664BDFF8A8E1DFF8A8C10A6892
:100B100032FA06F502D103B0BDE8F08F4FF00108BC
:100B200008FA06F802EA080290457FD14D68122DB6
:100B300000F0AA8000F28380022D00F0A28077D816
:100B4000002D00F08980012D00F099804FF00F09F1
:100B5000FF2A93BF824606F18045083DD0F800B0D9
:100B600092BFB500D0F804B0AD0009FA05F82BEA41
:100B7000080804FA05F588BF00F1040A48EA0505EB
:100B8000CAF80050D1F804A01AF0805F4ED0454D4D
:100B9000444FAD6926F0030845F00105BD61BD690C
:100BA00008F1804805F00105019508F5803806F048
:100BB000030B019D4FEA8B0BD8F8085009FA0BF98B
:100BC00025EA0909384DA84263D005F58065A84299
:100BD00061D005F58065A8425FD005F58065A84223
:100BE0000CBF0325042505FA0BF545EA0905C8F8ED
:100BF00008501D681AF4803F14BF154395431D60CB
:100C00005D681AF4003F14BF154395435D609D680D
:100C10001AF4801F14BF154395439D60DD681AF4D4
:100C2000001F14BF2A4325EA0202DA6001366EE78C
:100C3000032D22D0112D89D1CC68043486E71B4FB7
:100C4000BD4209D012D8DFF870904D4504D009F5A7
:100C500080394D457FF47AAF8C68C4B1012C0CBF4C
:100C6000C0F81080C0F8148008246FE77545F3D0F1
:100C70006545F1D0DFF84490EBE7002466E7CC68E7
:100C800064E7CC68083461E7CC680C345EE7042480
:100C90005CE70025A7E70125A5E70225A3E700BF3C
:100CA0000004014000100240000801400000211033
:100CB000000031100000321000001110000022105E
:100CC0008368194214BF0120002070470AB10161F6
:100CD00070470904FBE700002DE9F341054608B918
:100CE00001203CE00368DB0710D42B689F075DD42C
:100CF0002B68190700F194802B685A0700F1BE8019
:100D0000E869002840F02C81002028E08F4C6368BF
:100D100003F00C03042B07D0636803F00C03082BCB
:100D200009D16368DE0306D523689C03DDD56B68B3
:100D3000002BDAD1D4E76B68B3F5803F12D123687A
:100D400043F480332360FFF757FE06462368980379
:100D5000CBD4FFF751FE801B6428F7D9032002B0E3
:100D6000BDE8F0819BB9236823F4803323602368B6
:100D700023F480232360FFF73FFE06462368990390
:100D8000B3D5FFF739FE801B6428F7D9E6E7B3F542
:100D9000A02F236803D143F480232360CFE723F4FB
:100DA00080332360236823F48023CBE7674C636898
:100DB00013F00C0F07D0636803F00C03082B10D15D
:100DC0006368DA030DD423689B0702D52B69012BD6
:100DD00086D123686A6923F0F80343EAC2032360DB
:100DE00086E72A695A4B6AB101221A60FFF704FEAE
:100DF000064623689F07ECD4FFF7FEFD801B022800
:100E0000F7D9ABE71A60FFF7F7FD064623689807A6
:100E10007FF56EAFFFF7F0FD801B0228F6D99DE746
:100E2000AA694A4C4B4BDAB101221A60FFF7E4FD84
:100E30000646636A9B070DD54FF4FA52464B1B6872
:100E4000B3FBF2F3019300BF019B5A1E0192002BEA
:100E5000F9D151E7FFF7D0FD801B0228E9D97DE7E2
:100E60001A60FFF7C9FD0646636A9F077FF544AF26
:100E7000FFF7C2FD801B0228F6D96FE7334CE36908
:100E8000D80024D40127E36943F08053E361E36988
:100E900003F080530093009B304E3368D90518D57A
:100EA000EB68012B26D1236A43F001032362FFF78D
:100EB000A3FD41F288368046236A9B073FD5002F69
:100EC0003FF41EAFE36923F08053E36118E7002786
:100ED000E2E7336843F480733360FFF78DFD8046AB
:100EE0003368DA05DCD4FFF787FDA0EB080064283F
:100EF000F6D933E7ABB9236A41F2883823F001030E
:100F00002362236A23F004032362FFF775FD06467C
:100F1000236A9807D3D5FFF76FFD801B4045F7D9AB
:100F20001CE7052B236A03D143F004032362BAE7CD
:100F300023F001032362236A23F00403B6E7FFF7DB
:100F40005BFDA0EB0800B042B6D907E700100240F5
:100F50000000424280044242100000200070004025
:100F60002A4B5A681C4602F00C02082A3DD0002386
:100F7000274E022833602BD1FFF73EFD074623683A
:100F800099011FD42B6AB3F5803F05D16268A96827
:100F900022F400320A436260696A62680B4322F4F9
:100FA00074121343636001233360FFF725FD054688
:100FB00023689A013FF5A8AEFFF71EFD401B0228EB
:100FC000F6D9CBE6FFF718FDC01B0228D7D9C5E636
:100FD000FFF712FD054623689B017FF595AEFFF7ED
:100FE0000BFD401B0228F6D9B8E601283FF4B7AE46
:100FF00058682B6A00F480329A427FF471AE6B6AB3
:1010000000F47010C01A18BF0120A8E600100240BA
:101010006000424230B5194B87B002AC03F11005B5
:10102000224618685968083303C2AB421446F7D108
:1010300001238DF80430022311498DF805304B68E7
:1010400003F00C02082A17D1C3F3834206A8024416
:10105000DB0312F8102C0CD54B680A48C3F340434D
:10106000504306AA134413F8143CB0FBF3F007B046
:1010700030BD05485043FAE70248F8E73426000837
:101080000010024000127A0000093D002DE9F041F5
:101090000D46044610B90120BDE8F081454A1368A9
:1010A00003F007038B4229D321688E0731D4CA0786
:1010B00044D4404A136803F007039D4267D3226873
:1010C0003D4D12F0040F6ED1130706D56B682269EF
:1010D00023F4605343EAC2036B60FFF79BFF6B6826
:1010E000364AC3F30313D35CD840354B1860354BF5
:1010F0001868FFF73FFC0020BDE8F081136823F07B
:1011000007030B431360136803F007039942C2D12E
:10111000CAE7294B11F0040F1EBF5A6842F4E0627F
:101120005A60080742BF5A6842F460525A605A68CF
:10113000A06822F0F00202435A60B8E762681E4ECF
:10114000012A33681BD113F4003FA4D0736841F225
:10115000883823F0030313437360FFF74DFC074601
:101160007368626803F00C03B3EB820FA1D0FFF742
:1011700043FCC01B4045F3D90320BDE8F081022A9F
:1011800002D113F0007FE0E713F0020FDDE71368F0
:1011900023F007032B431360136803F007039D42FA
:1011A0007FF479AF8BE76B68E16823F4E0630B436E
:1011B0006B6089E7002002400010024044260008CE
:1011C0001000002004000020F8B504460E46154625
:1011D0001F4621688A6836EA020301D00020F8BD64
:1011E0006B1CF7D0FFF708FCC01B8542F1D82368C1
:1011F0005A6822F0E0025A606268B2F5827F0AD132
:10120000A268B2F5004F02D0B2F5806F03D11A6820
:1012100022F040021A60A26AB2F5005F07D11A6894
:1012200022F400521A601A6842F400521A60012334
:1012300084F851300023032084F85030F8BD10B5F5
:1012400013460A4680210446FFF7BEFF20B1032063
:10125000636D43F02003636510BD10B5044600289C
:1012600034D00023836290F8513003F0FF021BB9A1
:1012700080F8502001F09CF80223226884F8513055
:101280001368A06823F0400313606368A1690343F7
:10129000E06803432069034360690343E069034353
:1012A000206A0343A06A034301F40070090C03435E
:1012B00001F0040113605160D369002023F400633E
:1012C000D3610123606584F8513010BD012010BD49
:1012D0002DE9F7431E4690F850300446012B0D4689
:1012E00091460A9F00F0E280012380F85030FFF71A
:1012F00083FB94F851308046DBB2012B61680AD041
:10130000B1F5827F40F0D080A068002840F0CC800A
:10131000042B40F0C980002D00F0C480B9F1000F0B
:1013200000F0C080002E00F0BD8094F85130C4F869
:101330003890042B1CBF052384F8513000236365CB
:10134000236463642368E687E6861A68A6875006E6
:1013500058BF1A68256358BF42F04002A68658BF9E
:101360001A60E268B2F5006F58D109B1012E07D1B9
:1013700035F8022BDA60E38E2563013B9BB2E386EE
:101380000125E38E9BB2ABB9E38F9BB293B9424682
:1013900039462046FFF753FF002840F08180A368BC
:1013A000002B32D123680190DA6801929B68019387
:1013B000019B2AE02268936899070DD5E38E9BB2C2
:1013C00053B14DB10025236B33F8021BD160236369
:1013D000E38E013B9BB2E3869368DB070CD5E38F7A
:1013E0009BB24BB10125D268A36B23F8022BA363F8
:1013F000E38F013B9BB2E387FFF7FEFAA0EB080007
:101400008742BED87E1CBCD00320012384F8513013
:10141000002384F8503003B0BDE8F08309B1012EF9
:1014200008D12A781A73236B01332363E38E013BBF
:101430009BB2E3860125E38E9BB21BB9E38F9BB27F
:10144000002BA4D02268936898070ED5E38E9BB238
:101450005BB155B10025236B1B781373236B0133EC
:101460002363E38E013B9BB2E38622689368D9072E
:101470000DD5E38F9BB253B10125D268A36B1A70CF
:10148000A36B0133A363E38F013B9BB2E387FFF7B9
:10149000B3FAA0EB08008742CDD87B1CCBD0B3E7D2
:1014A000202363650120B0E70220AEE70220B2E707
:1014B000036A70B523F001030362036A446882691A
:1014C0000D6822F073022A438D6823F002032B4338
:1014D0000A4DA8420BD1CD6823F008032B438E6937
:1014E0004D6924F44074354323F004032C434460D5
:1014F00082614A684263036270BD00BF002C0140F4
:10150000036A70B523F480730362036A4468C26996
:101510000D6822F073022A438D6823F4007343EAB6
:1015200005230B4DA8420DD1CD6823F4006343EA97
:1015300005238E694D6924F44054354323F48063B8
:1015400044EA05144460C2614A68C263036270BD24
:10155000002C0140036A30B523F480530362036A10
:101560004468C2690D6822F4E64242EA05228D68A9
:1015700023F4005343EA0533064DA84202BF4D69E8
:1015800024F4804444EA85144460C2614A680264D9
:10159000036230BD002C014003680020DA6842F08D
:1015A0000102DA609A6802F00702062A1EBF1A6872
:1015B00042F001021A6070477047704770477047E9
:1015C0007047036810B51A69044691070ED5DA68AA
:1015D00092070BD56FF002021A6101229B69027714
:1015E0009B0777D0FFF7EAFF0023237723681A6968
:1015F000500710D5DA6851070DD56FF004021A6153
:1016000002229B69227713F4407F204668D0FFF7BF
:10161000D5FF0023237723681A6912070FD5DA68EC
:1016200010070CD56FF008021A610422DB692277DB
:10163000990720465AD0FFF7C1FF0023237723687C
:101640001A69D20610D5DA68D0060DD56FF01002EF
:101650001A610822DB69227713F4407F20464BD0C1
:10166000FFF7ACFF0023237723681A69D10708D559
:10167000DA68D20705D56FF0010220461A6100F042
:1016800047FE23681A69100608D5DA68110605D5E1
:101690006FF0800220461A6100F03DFA23681A6953
:1016A000520608D5DA68500605D56FF0400220468C
:1016B0001A61FFF785FF23681A69910622D5DA6857
:1016C00092061FD56FF020022046BDE810401A6137
:1016D00000F020BAFFF771FF2046FFF770FF83E7A5
:1016E000FFF76BFF2046FFF76AFF92E7FFF765FF02
:1016F0002046FFF764FFA0E7FFF75FFF2046FFF7F4
:101700005EFFAFE710BD00001A4A036890420AD09E
:10171000B0F1804F07D0A2F59432904203D002F589
:101720008062904215D14A6823F070031343114A36
:1017300090420AD0B0F1804F07D0A2F59432904287
:1017400003D002F58062904203D1CA6823F440734B
:1017500013434A6923F08003134303608B68C36219
:101760000B688362034B984204BF0B690363012338
:1017700043617047002C014010B50446A0B190F8B9
:101780003D3003F0FF021BB980F83C2000F04CFE16
:101790000223206884F83D30211DFFF7B5FF0123A7
:1017A000002084F83D3010BD012010BD10B5044666
:1017B000A0B190F83D3003F0FF021BB980F83C2047
:1017C000FFF7FAFE0223206884F83D30211DFFF761
:1017D0009BFF0123002084F83D3010BD012010BD87
:1017E000036A70B523F010030362036A44688269D8
:1017F0000D6822F4E64242EA05228D6823F02003B8
:1018000043EA05130B4DA8420DD1CD6823F08003A8
:1018100043EA05138E694D6924F44064354323F08F
:10182000400344EA8504446082614A68826303623B
:1018300070BD00BF002C014038B590F83C30044624
:10184000012B4FF0020025D0012384F83D0084F8DD
:101850003C300C2A18D8DFE802F0071717171E17BC
:1018600017172F17171740002068FFF721FE23686E
:1018700009699A6942F008029A619A6922F00402A1
:101880009A619A690A439A610123002084F83D30E5
:1018900084F83C0038BD2068FFF7A2FF236809697F
:1018A0009A6942F400629A619A6922F480629A61AC
:1018B0009A6942EA0122E6E72068FFF721FE2368E1
:1018C0000969DA6942F00802DA61DA6922F0040291
:1018D000DA61DA690A43DA61D6E72068FFF73AFE8F
:1018E00023680969DA6942F40062DA61DA6922F48C
:1018F0008062DA61DA6942EA0122ECE710B58468B5
:101900000A4324F47F4442EA03232343836010BD47
:1019100090F83C3070B5012B04464FF0020019D00E
:10192000012384F83D00206884F83C30836823F468
:101930007F4323F0770383600B68402B65D015D875
:10194000102B0CD007D853B10123002084F83D3070
:1019500084F83C0070BD202B01D0302BF4D182687C
:1019600043F0070322F0700213431AE0602B34D0D7
:1019700019D8502BE8D14A68CE68016A056A21F06F
:101980000A0125F00105056283690A4323F0F0038B
:1019900043EA061383610262836823F0700343F015
:1019A00057038360D0E7702B0CD0B3F5005FCBD129
:1019B000CB684A688968FFF7A1FF2268936843F4FF
:1019C000804308E0CB684A688968FFF797FF226880
:1019D000936843F077039360B6E74D68CE68016A79
:1019E00021F0100101628269036A22F4704223F03F
:1019F000A00343EA051342EA063282610362836868
:101A000023F0700343F06703CBE74A68CE68016AAE
:101A1000056A21F00A0125F00105056283690A4380
:101A200023F0F00343EA061383610262836823F024
:101A3000700343F04703B4E710B50124036A01F0D3
:101A40001F018C4023EA04030362036A8A401A439D
:101A5000026210BD10B5044601220068FFF7ECFFDA
:101A60002368094A0020934202BF5A6C42F40042A4
:101A70005A649A6802F00702062A1EBF1A6842F0EA
:101A800001021A6010BD00BF002C014090F83C30EC
:101A900030B5012B4FF0020314D0046880F83D30BC
:101AA0006268A3680D68496822F0700223F0800321
:101AB0000B432A436260A360012380F83D3000237A
:101AC00080F83C30184630BD90F83C30012B1FD0D8
:101AD000CB688A6823F4407313434A6823F4806315
:101AE00013430A6823F4006313430A6923F4805301
:101AF00013434A6923F400531343CA6923F4804310
:101B0000134302685364002380F83C301846704742
:101B1000022070477047704710B590B0282200210E
:101B200006A800F073FD1422002101A800F06EFD4C
:101B300001230A93102302240B934FF4601306A889
:101B40000F9306940D94FFF7C7F80F23019380239A
:101B500003934FF4806304930023214601A8029469
:101B60000593FFF793FA10B010BD000080B59CB04C
:101B7000FEF724FFFFF7D0FF1022002114A800F089
:101B800045FDAD4B00249A6901250226602742F0ED
:101B900010029A619A69602102F010020392039A7E
:101BA0009A69A64842F020029A619A694FF00408A7
:101BB00002F020020492049A9A694FF4805942F08C
:101BC00008029A619A6902F008020592059A9A69D8
:101BD00042F004029A619B69002203F00403069319
:101BE000069BFFF773F8002240F607419448FFF781
:101BF0006DF814A991481497159516941796FEF749
:101C00007DFF40F6074314A98D481493159516944B
:101C10001796FEF773FF14A98A48CDF850801594E3
:101C20001694FEF76BFFF82314A9854814931594B6
:101C30001694FEF763FF4FF482738348834A8460EF
:101C400080E80C004FF4007383613823C361802364
:101C500003620A23C460C362066145614462846210
:101C6000FFF7FBFA2146102209A800F0CFFC21461D
:101C70001C220DA80794089400F0C8FC20222146DD
:101C800014A800F0C3FC0323714D7249284685E86F
:101C90000A0040F21F33AC60EB602C616C61AC61F8
:101CA000FFF76AFD09A92846CDF82490FFF730FE1A
:101CB0002846FFF77BFD07A9284607940894FFF7FD
:101CC000E5FE052322460DA928460E930D970F9495
:101CD0001094119412941394FFF7AEFD42460DA98F
:101CE0002846FFF7A9FD08220DA92846FFF7A4FD05
:101CF0004FF4005314A9284619931494159416947C
:101D0000179418941B94FFF7DFFE284600F0D0FBD1
:101D10001022214614A800F079FC4FF080401F23C8
:101D20004D4F0D9487E8090063233846FB60BC6083
:101D30003C61BC610E94FFF71FFD14A93846CDF835
:101D40005090FFF7E5FD0DA938460D940E94FFF76E
:101D50009DFE1022214614A800F058FC40F67F4E4C
:101D60003E4E3F4B304686E8084040F2E7330D9444
:101D7000F3600E94B4603461B461FFF7FDFC14A904
:101D80003046CDF85090FFF7C3FD0DA930460D94B5
:101D90000E94FFF77BFE21462846FFF75BFE414687
:101DA0002846FFF757FE08212846FFF753FE38461E
:101DB000FFF7F2FB3046FFF7EFFB2C461F4FDFF833
:101DC000A4801425002240213846FEF77FFF05231A
:101DD000244A254900951C48FFF77AFA0122402140
:101DE0003846FEF773FF2846FEF70CFE98F80430DD
:101DF000FF2B3BD1002201211148FEF767FF002293
:101E000002210F48FEF762FF002204210C48FEF772
:101E10005DFF00224FF480610948FEF757FF002262
:101E20004FF400610648FEF751FF0022202138469A
:101E3000FEF74CFFC5E700BF001002400010014054
:101E4000000C014000140140340000200038004024
:101E5000F4000020002C01403C0100208C000020F8
:101E6000000400403401002008000020EF2B1BD1AB
:101E70006A26724D0021284600F0E8F82A69236896
:101E800004215A636E4800226E60FEF71FFF002295
:101E90004FF480616A48FEF719FF0121694D284619
:101EA00000F0D4F86E6083E06F2B16D1634D0021F3
:101EB000284600F0CBF830232A696B60624D236816
:101EC00000215A63284600F0C1F8C8232A696B60D4
:101ED00023685C4D9A6301212EE07F2B14D14226AA
:101EE000564D0021284600F0B1F823682A696E603B
:101EF000554D5A630121284600F0A8F8C8236B60AD
:101F000023682A699A6333E03F2B1AD14B4D012194
:101F1000284600F09BF830232A696B604A4D2368FD
:101F200001215A63284600F091F8C82300216B6014
:101F30002A692368434D9A63284600F087F8B62340
:101F400035E0BF2B17D16A263C4D0121284600F011
:101F50007DF82A69236804215A63394800226E609B
:101F6000FEF7B4FE00224FF480613548FEF7AEFE66
:101F7000344D002193E79F2B1ED1304D012128467F
:101F800000F064F8B6232A696B602F4D2368284659
:101F90005A63002100F05AF8C8232A696B6023684D
:101FA000284D9A630021284600F050F830236B60DA
:101FB00023682A69DA6304E7DF2B14D142261F4D18
:101FC0000121284600F042F823682A696E601E4D00
:101FD0005A630021284600F039F8C8236B60236853
:101FE0002A699A6359E7CF2B3FF460AFFE2B10D1DB
:101FF0004226124D0121284600F028F82A696E6019
:102000002368114D5A630121284600F01FF86E60C5
:10201000E5E7FD2B7FF4D5AE4226084D002128468A
:1020200000F014F82A696E602368074D5A63002196
:10203000284600F00BF86E6062E700BFCC0000207D
:10204000000C0140E00000207C010020164B00291C
:1020500010B507BF002201240024012298420AD1B2
:1020600001211248FEF732FE224602210F48BDE848
:102070001040FEF72BBE0E4B984207D104210B48AF
:10208000FEF724FE22464FF48061EFE7094B9842A9
:1020900008D14FF400610548FEF718FE22462021C2
:1020A0000548E4E710BD00BFCC000020000C014053
:1020B0007C010020E0000020001001402DE9F041EB
:1020C0006C4D8046A84233D108216B48FEF7F8FDDD
:1020D00001280DD008216848FEF7F2FD012810D133
:1020E00004216648FEF7ECFD01280AD1044643E0CE
:1020F00004216248FEF7E4FD0028EBD100242646C7
:1021000016E008215C48FEF7DBFD50B308215A4871
:10211000FEF7D6FD68BB04215848FEF7D1FD40BB51
:1021200003263446AB68013BAB60EB68013BEB60D8
:10213000534DA8452FD120214F48FEF7C1FD01285E
:1021400023D020214C48FEF7BBFD01283AD11021B5
:102150004948FEF7B5FD012834D1E0B1AB68013341
:1021600041E004214548FEF7ABFD0128CED1022411
:1021700002E00024002CC1D0002CC0D0AB68013399
:10218000AB60EB68013BEB60B9E710213A48FEF722
:1021900097FD0028D5D13B4DA8453ED1802136483A
:1021A000FEF78EFD01282FD080213348FEF788FDF1
:1021B000012834D140213048FEF782FD01282ED17C
:1021C00007463BE020212C48FEF77AFD80B1202114
:1021D0002948FEF775FD98B910212748FEF770FDD4
:1021E00070B9AB68013BAB60EB68013BEB60D2E7D9
:1021F00010212148FEF764FD0128E8D10220ACE758
:1022000000200028C7D0A8E740211B48FEF758FD52
:102210000028C9D1032C00D10EB3BDE8F081802184
:102220001548FEF74DFD80B180211348FEF748FDAB
:1022300020B940211048FEF743FDC0B1032C0CD05B
:10224000002FEAD0AB6801330BE040210A48FEF7CB
:1022500037FD0128E8D10227F0E7002EF0D1AB6866
:10226000013BAB60EB68013BEB60BDE8F08103270D
:10227000E4E700BFCC000020000C01400014014046
:102280007C010020E0000020C368002BB8BF5B4247
:1022900003600023C360704770B590E81800E41A2B
:1022A000002B06462046C8BF2546FEF793F812A32A
:1022B000D3E90023FEF704F911A3D3E90023FEF7C5
:1022C000FFF8FEF737FB342303FB040042F21073E0
:1022D000C5EB05152844984228BF1846FEF77AF842
:1022E00009A3D3E90023FEF7EBF8FEF7FBFA306110
:1022F00070BD00BFAFF300807B14AE47E17A843F2E
:102300000000000000F4BC407B14AE47E17AA43F1B
:10231000036810B5B3F1804F044608D10F48FFF7AA
:10232000CDFE0F48FFF7CAFE0E48FFF7C7FE226832
:102330000D4B9A4210D10948FFF7A6FF0848FFF756
:10234000A3FF0848FFF7A0FF0548FFF7A5FFBDE87A
:1023500010400448FFF7A0BF10BD00BFCC00002014
:102360007C010020E0000020000400400E4B82B001
:102370009A6942F001029A619A6902F001020092A0
:10238000009ADA6942F08052DA61DB69074A03F0A9
:1023900080530193019B536823F0E06343F0007383
:1023A000536002B0704700BF0010024000000140BF
:1023B00010B5044686B01022002102A800F026F9CC
:1023C0002268174B9A4228D103F5EC33DA6902A947
:1023D00042F48042DA61DA69124802F480420092E3
:1023E000009A9A6942F008029A619B6903F0080317
:1023F0000193019B4FF42043029302230393032391
:102400000593FEF77BFB4FF480430293002302A960
:10241000044803930493FEF771FB06B010BD00BFA0
:1024200000380040000C01401FB503681D4A93426C
:102430000CD11D4B9A6942F400629A619B6903F4C6
:1024400000630193019B05B05DF804FBB3F1804F7D
:1024500013D103F50433DA691C2042F00102DA617A
:102460000022DB69114603F001030293029BFEF791
:10247000EDFA1C20FEF71EFBE5E70C4A9342E2D181
:10248000094B1D20DA6942F00202DA610022DB69A1
:10249000114603F002030393039BFEF7D7FA1D20B6
:1024A000E8E700BF002C014000100240000400409B
:1024B00010B5044686B01022002102A800F0A6F84C
:1024C00022680D4B9A4214D103F564439A6902A91C
:1024D00042F004029A619B69084803F004030193E7
:1024E000019B4FF4E0630293022303930593FEF7ED
:1024F00005FB06B010BD00BF002C014000080140E4
:102500007047FEE7FEE7FEE7FEE77047704770475B
:10251000FEF766BA0148FFF754B800BF3C0100203F
:102520000148FFF74EB800BF8C0000200F4B1A681F
:1025300042F001021A6059680D4A0A405A601A684E
:1025400022F0847222F480321A601A6822F4802207
:102550001A605A6822F4FE025A604FF41F029A6011
:102560004FF00062034B9A60704700BF00100240BA
:102570000000FFF800ED00E0002103E00B4B5B588A
:10258000435004310A480B4B42189A42F6D30A4A88
:1025900002E0002342F8043B084B9A42F9D3FFF7CC
:1025A000C5FF00F00FF8FFF7E1FA70475C2600085E
:1025B00000000020140000201400002090010020E2
:1025C000FEE7000070B500250C4E0D4CA41BA410B6
:1025D000A54209D100F022F800250A4E0A4CA41B9E
:1025E000A410A54205D170BD56F825309847013595
:1025F000EEE756F8253098470135F2E754260008F3
:1026000054260008542600085826000803460244B1
:10261000934200D1704703F8011BF9E7F8B500BFFA
:10262000F8BC08BC9E467047F8B500BFF8BC08BCB3
:042630009E4670470B
:1026340002030405060708090A0B0C0D0E0F1010FF
:10264400000000000000000001020304060708095E
:042654003501000844
:042658001101000864
:10265C00010000001000000001420000000000001A
:04266C000024F40052
:040000050800257951
:00000001FF
